{
	"first.sol": {
		"Lottery": {
			"abi": [
				{
					"inputs": [],
					"stateMutability": "nonpayable",
					"type": "constructor"
				},
				{
					"inputs": [],
					"name": "balance",
					"outputs": [
						{
							"internalType": "uint256",
							"name": "",
							"type": "uint256"
						}
					],
					"stateMutability": "view",
					"type": "function"
				},
				{
					"inputs": [],
					"name": "enterToGame",
					"outputs": [],
					"stateMutability": "payable",
					"type": "function"
				},
				{
					"inputs": [],
					"name": "manager",
					"outputs": [
						{
							"internalType": "address",
							"name": "",
							"type": "address"
						}
					],
					"stateMutability": "view",
					"type": "function"
				},
				{
					"inputs": [
						{
							"internalType": "uint256",
							"name": "",
							"type": "uint256"
						}
					],
					"name": "players",
					"outputs": [
						{
							"internalType": "address",
							"name": "",
							"type": "address"
						}
					],
					"stateMutability": "view",
					"type": "function"
				},
				{
					"inputs": [],
					"name": "sendFundToWinner",
					"outputs": [],
					"stateMutability": "payable",
					"type": "function"
				}
			],
			"devdoc": {
				"kind": "dev",
				"methods": {},
				"version": 1
			},
			"evm": {
				"assembly": "    /* \"first.sol\":64:1250  contract Lottery{... */\n  mstore(0x40, 0x80)\n    /* \"first.sol\":173:231  constructor(... */\n  callvalue\n  dup1\n  iszero\n  tag_1\n  jumpi\n  0x00\n  dup1\n  revert\ntag_1:\n  pop\n    /* \"first.sol\":213:223  msg.sender */\n  caller\n    /* \"first.sol\":203:210  manager */\n  0x00\n  dup1\n    /* \"first.sol\":203:223  manager = msg.sender */\n  0x0100\n  exp\n  dup2\n  sload\n  dup2\n  0xffffffffffffffffffffffffffffffffffffffff\n  mul\n  not\n  and\n  swap1\n  dup4\n  0xffffffffffffffffffffffffffffffffffffffff\n  and\n  mul\n  or\n  swap1\n  sstore\n  pop\n    /* \"first.sol\":64:1250  contract Lottery{... */\n  dataSize(sub_0)\n  dup1\n  dataOffset(sub_0)\n  0x00\n  codecopy\n  0x00\n  return\nstop\n\nsub_0: assembly {\n        /* \"first.sol\":64:1250  contract Lottery{... */\n      mstore(0x40, 0x80)\n      jumpi(tag_1, lt(calldatasize, 0x04))\n      shr(0xe0, calldataload(0x00))\n      dup1\n      0x07a0ee2d\n      eq\n      tag_2\n      jumpi\n      dup1\n      0x481c6a75\n      eq\n      tag_3\n      jumpi\n      dup1\n      0xb69ef8a8\n      eq\n      tag_4\n      jumpi\n      dup1\n      0xe802e757\n      eq\n      tag_5\n      jumpi\n      dup1\n      0xf71d96cb\n      eq\n      tag_6\n      jumpi\n    tag_1:\n      0x00\n      dup1\n      revert\n        /* \"first.sol\":920:1247  function sendFundToWinner()public payable onlyManagerAccess{... */\n    tag_2:\n      tag_7\n      tag_8\n      jump\t// in\n    tag_7:\n      stop\n        /* \"first.sol\":87:109  address public manager */\n    tag_3:\n      callvalue\n      dup1\n      iszero\n      tag_9\n      jumpi\n      0x00\n      dup1\n      revert\n    tag_9:\n      pop\n      tag_10\n      tag_11\n      jump\t// in\n    tag_10:\n      mload(0x40)\n      tag_12\n      swap2\n      swap1\n      tag_13\n      jump\t// in\n    tag_12:\n      mload(0x40)\n      dup1\n      swap2\n      sub\n      swap1\n      return\n        /* \"first.sol\":147:166  uint public balance */\n    tag_4:\n      callvalue\n      dup1\n      iszero\n      tag_14\n      jumpi\n      0x00\n      dup1\n      revert\n    tag_14:\n      pop\n      tag_15\n      tag_16\n      jump\t// in\n    tag_15:\n      mload(0x40)\n      tag_17\n      swap2\n      swap1\n      tag_18\n      jump\t// in\n    tag_17:\n      mload(0x40)\n      dup1\n      swap2\n      sub\n      swap1\n      return\n        /* \"first.sol\":494:631  function enterToGame() public payable onlyUserAccess {... */\n    tag_5:\n      tag_19\n      tag_20\n      jump\t// in\n    tag_19:\n      stop\n        /* \"first.sol\":116:140  address[] public players */\n    tag_6:\n      callvalue\n      dup1\n      iszero\n      tag_21\n      jumpi\n      0x00\n      dup1\n      revert\n    tag_21:\n      pop\n      tag_22\n      0x04\n      dup1\n      calldatasize\n      sub\n      dup2\n      add\n      swap1\n      tag_23\n      swap2\n      swap1\n      tag_24\n      jump\t// in\n    tag_23:\n      tag_25\n      jump\t// in\n    tag_22:\n      mload(0x40)\n      tag_26\n      swap2\n      swap1\n      tag_13\n      jump\t// in\n    tag_26:\n      mload(0x40)\n      dup1\n      swap2\n      sub\n      swap1\n      return\n        /* \"first.sol\":920:1247  function sendFundToWinner()public payable onlyManagerAccess{... */\n    tag_8:\n        /* \"first.sol\":302:309  manager */\n      0x00\n      dup1\n      sload\n      swap1\n      0x0100\n      exp\n      swap1\n      div\n      0xffffffffffffffffffffffffffffffffffffffff\n      and\n        /* \"first.sol\":288:309  msg.sender == manager */\n      0xffffffffffffffffffffffffffffffffffffffff\n      and\n        /* \"first.sol\":288:298  msg.sender */\n      caller\n        /* \"first.sol\":288:309  msg.sender == manager */\n      0xffffffffffffffffffffffffffffffffffffffff\n      and\n      eq\n        /* \"first.sol\":280:341  require(msg.sender == manager,\"Only manager can access this\") */\n      tag_28\n      jumpi\n      mload(0x40)\n      0x08c379a000000000000000000000000000000000000000000000000000000000\n      dup2\n      mstore\n      0x04\n      add\n      tag_29\n      swap1\n      tag_30\n      jump\t// in\n    tag_29:\n      mload(0x40)\n      dup1\n      swap2\n      sub\n      swap1\n      revert\n    tag_28:\n        /* \"first.sol\":1000:1023  uint winningPlayerIndex */\n      0x00\n        /* \"first.sol\":1026:1048  randomlyChooseWinner() */\n      tag_32\n        /* \"first.sol\":1026:1046  randomlyChooseWinner */\n      tag_33\n        /* \"first.sol\":1026:1048  randomlyChooseWinner() */\n      jump\t// in\n    tag_32:\n        /* \"first.sol\":1000:1048  uint winningPlayerIndex = randomlyChooseWinner() */\n      swap1\n      pop\n        /* \"first.sol\":1059:1086  address payable finalWinner */\n      0x00\n        /* \"first.sol\":1098:1105  players */\n      0x01\n        /* \"first.sol\":1106:1124  winningPlayerIndex */\n      dup3\n        /* \"first.sol\":1098:1125  players[winningPlayerIndex] */\n      dup2\n      sload\n      dup2\n      lt\n      tag_34\n      jumpi\n      tag_35\n      tag_36\n      jump\t// in\n    tag_35:\n    tag_34:\n      swap1\n      0x00\n      mstore\n      keccak256(0x00, 0x20)\n      add\n      0x00\n      swap1\n      sload\n      swap1\n      0x0100\n      exp\n      swap1\n      div\n      0xffffffffffffffffffffffffffffffffffffffff\n      and\n        /* \"first.sol\":1059:1126  address payable finalWinner = payable (players[winningPlayerIndex]) */\n      swap1\n      pop\n        /* \"first.sol\":1137:1148  finalWinner */\n      dup1\n        /* \"first.sol\":1137:1157  finalWinner.transfer */\n      0xffffffffffffffffffffffffffffffffffffffff\n      and\n        /* \"first.sol\":1137:1166  finalWinner.transfer(balance) */\n      0x08fc\n        /* \"first.sol\":1158:1165  balance */\n      sload(0x02)\n        /* \"first.sol\":1137:1166  finalWinner.transfer(balance) */\n      swap1\n      dup2\n      iszero\n      mul\n      swap1\n      mload(0x40)\n      0x00\n      mload(0x40)\n      dup1\n      dup4\n      sub\n      dup2\n      dup6\n      dup9\n      dup9\n      call\n      swap4\n      pop\n      pop\n      pop\n      pop\n      iszero\n      dup1\n      iszero\n      tag_39\n      jumpi\n      returndatasize\n      0x00\n      dup1\n      returndatacopy\n      revert(0x00, returndatasize)\n    tag_39:\n      pop\n        /* \"first.sol\":1187:1188  0 */\n      0x00\n        /* \"first.sol\":1177:1184  balance */\n      0x02\n        /* \"first.sol\":1177:1188  balance = 0 */\n      dup2\n      swap1\n      sstore\n      pop\n        /* \"first.sol\":1223:1224  0 */\n      0x00\n        /* \"first.sol\":1209:1225  new address[](0) */\n      0xffffffffffffffff\n      dup2\n      gt\n      iszero\n      tag_40\n      jumpi\n      tag_41\n      tag_42\n      jump\t// in\n    tag_41:\n    tag_40:\n      mload(0x40)\n      swap1\n      dup1\n      dup3\n      mstore\n      dup1\n      0x20\n      mul\n      0x20\n      add\n      dup3\n      add\n      0x40\n      mstore\n      dup1\n      iszero\n      tag_43\n      jumpi\n      dup2\n      0x20\n      add\n      0x20\n      dup3\n      mul\n      dup1\n      calldatasize\n      dup4\n      calldatacopy\n      dup1\n      dup3\n      add\n      swap2\n      pop\n      pop\n      swap1\n      pop\n    tag_43:\n      pop\n        /* \"first.sol\":1199:1206  players */\n      0x01\n        /* \"first.sol\":1199:1225  players = new address[](0) */\n      swap1\n      dup1\n      mload\n      swap1\n      0x20\n      add\n      swap1\n      tag_44\n      swap3\n      swap2\n      swap1\n      tag_45\n      jump\t// in\n    tag_44:\n      pop\n        /* \"first.sol\":979:1247  {... */\n      pop\n      pop\n        /* \"first.sol\":920:1247  function sendFundToWinner()public payable onlyManagerAccess{... */\n      jump\t// out\n        /* \"first.sol\":87:109  address public manager */\n    tag_11:\n      0x00\n      dup1\n      sload\n      swap1\n      0x0100\n      exp\n      swap1\n      div\n      0xffffffffffffffffffffffffffffffffffffffff\n      and\n      dup2\n      jump\t// out\n        /* \"first.sol\":147:166  uint public balance */\n    tag_16:\n      sload(0x02)\n      dup2\n      jump\t// out\n        /* \"first.sol\":494:631  function enterToGame() public payable onlyUserAccess {... */\n    tag_20:\n        /* \"first.sol\":427:434  manager */\n      0x00\n      dup1\n      sload\n      swap1\n      0x0100\n      exp\n      swap1\n      div\n      0xffffffffffffffffffffffffffffffffffffffff\n      and\n        /* \"first.sol\":413:434  msg.sender != manager */\n      0xffffffffffffffffffffffffffffffffffffffff\n      and\n        /* \"first.sol\":413:423  msg.sender */\n      caller\n        /* \"first.sol\":413:434  msg.sender != manager */\n      0xffffffffffffffffffffffffffffffffffffffff\n      and\n      sub\n        /* \"first.sol\":405:466  require(msg.sender != manager, \"Manager can't participate!!\") */\n      tag_47\n      jumpi\n      mload(0x40)\n      0x08c379a000000000000000000000000000000000000000000000000000000000\n      dup2\n      mstore\n      0x04\n      add\n      tag_48\n      swap1\n      tag_49\n      jump\t// in\n    tag_48:\n      mload(0x40)\n      dup1\n      swap2\n      sub\n      swap1\n      revert\n    tag_47:\n        /* \"first.sol\":568:575  players */\n      0x01\n        /* \"first.sol\":581:591  msg.sender */\n      caller\n        /* \"first.sol\":568:592  players.push(msg.sender) */\n      swap1\n      dup1\n      0x01\n      dup2\n      sload\n      add\n      dup1\n      dup3\n      sstore\n      dup1\n      swap2\n      pop\n      pop\n      0x01\n      swap1\n      sub\n      swap1\n      0x00\n      mstore\n      keccak256(0x00, 0x20)\n      add\n      0x00\n      swap1\n      swap2\n      swap1\n      swap2\n      swap1\n      swap2\n      0x0100\n      exp\n      dup2\n      sload\n      dup2\n      0xffffffffffffffffffffffffffffffffffffffff\n      mul\n      not\n      and\n      swap1\n      dup4\n      0xffffffffffffffffffffffffffffffffffffffff\n      and\n      mul\n      or\n      swap1\n      sstore\n      pop\n        /* \"first.sol\":614:623  msg.value */\n      callvalue\n        /* \"first.sol\":603:610  balance */\n      0x02\n      0x00\n        /* \"first.sol\":603:623  balance += msg.value */\n      dup3\n      dup3\n      sload\n      tag_52\n      swap2\n      swap1\n      tag_53\n      jump\t// in\n    tag_52:\n      swap3\n      pop\n      pop\n      dup2\n      swap1\n      sstore\n      pop\n        /* \"first.sol\":494:631  function enterToGame() public payable onlyUserAccess {... */\n      jump\t// out\n        /* \"first.sol\":116:140  address[] public players */\n    tag_25:\n      0x01\n      dup2\n      dup2\n      sload\n      dup2\n      lt\n      tag_54\n      jumpi\n      0x00\n      dup1\n      revert\n    tag_54:\n      swap1\n      0x00\n      mstore\n      keccak256(0x00, 0x20)\n      add\n      0x00\n      swap2\n      pop\n      sload\n      swap1\n      0x0100\n      exp\n      swap1\n      div\n      0xffffffffffffffffffffffffffffffffffffffff\n      and\n      dup2\n      jump\t// out\n        /* \"first.sol\":639:914  function randomlyChooseWinner()private view onlyManagerAccess returns (uint winner) {... */\n    tag_33:\n        /* \"first.sol\":710:721  uint winner */\n      0x00\n        /* \"first.sol\":302:309  manager */\n      dup1\n      0x00\n      swap1\n      sload\n      swap1\n      0x0100\n      exp\n      swap1\n      div\n      0xffffffffffffffffffffffffffffffffffffffff\n      and\n        /* \"first.sol\":288:309  msg.sender == manager */\n      0xffffffffffffffffffffffffffffffffffffffff\n      and\n        /* \"first.sol\":288:298  msg.sender */\n      caller\n        /* \"first.sol\":288:309  msg.sender == manager */\n      0xffffffffffffffffffffffffffffffffffffffff\n      and\n      eq\n        /* \"first.sol\":280:341  require(msg.sender == manager,\"Only manager can access this\") */\n      tag_57\n      jumpi\n      mload(0x40)\n      0x08c379a000000000000000000000000000000000000000000000000000000000\n      dup2\n      mstore\n      0x04\n      add\n      tag_58\n      swap1\n      tag_30\n      jump\t// in\n    tag_58:\n      mload(0x40)\n      dup1\n      swap2\n      sub\n      swap1\n      revert\n    tag_57:\n        /* \"first.sol\":734:751  uint randomNumber */\n      0x00\n        /* \"first.sol\":810:811  1 */\n      0x01\n        /* \"first.sol\":797:809  block.number */\n      number\n        /* \"first.sol\":797:811  block.number-1 */\n      tag_60\n      swap2\n      swap1\n      tag_61\n      jump\t// in\n    tag_60:\n        /* \"first.sol\":787:812  blockhash(block.number-1) */\n      blockhash\n        /* \"first.sol\":813:828  block.timestamp */\n      timestamp\n        /* \"first.sol\":829:836  players */\n      0x01\n        /* \"first.sol\":770:837  abi.encodePacked(blockhash(block.number-1),block.timestamp,players) */\n      add(0x20, mload(0x40))\n      tag_62\n      swap4\n      swap3\n      swap2\n      swap1\n      tag_63\n      jump\t// in\n    tag_62:\n      mload(0x40)\n      0x20\n      dup2\n      dup4\n      sub\n      sub\n      dup2\n      mstore\n      swap1\n      0x40\n      mstore\n        /* \"first.sol\":760:838  keccak256(abi.encodePacked(blockhash(block.number-1),block.timestamp,players)) */\n      dup1\n      mload\n      swap1\n      0x20\n      add\n      keccak256\n        /* \"first.sol\":755:839  uint(keccak256(abi.encodePacked(blockhash(block.number-1),block.timestamp,players))) */\n      0x00\n      shr\n        /* \"first.sol\":734:839  uint randomNumber =  uint(keccak256(abi.encodePacked(blockhash(block.number-1),block.timestamp,players))) */\n      swap1\n      pop\n        /* \"first.sol\":872:879  players */\n      0x01\n        /* \"first.sol\":872:886  players.length */\n      dup1\n      sload\n      swap1\n      pop\n        /* \"first.sol\":857:869  randomNumber */\n      dup2\n        /* \"first.sol\":857:886  randomNumber % players.length */\n      tag_64\n      swap2\n      swap1\n      tag_65\n      jump\t// in\n    tag_64:\n        /* \"first.sol\":850:886  return randomNumber % players.length */\n      swap2\n      pop\n      pop\n        /* \"first.sol\":639:914  function randomlyChooseWinner()private view onlyManagerAccess returns (uint winner) {... */\n      swap1\n      jump\t// out\n    tag_45:\n      dup3\n      dup1\n      sload\n      dup3\n      dup3\n      sstore\n      swap1\n      0x00\n      mstore\n      keccak256(0x00, 0x20)\n      swap1\n      dup2\n      add\n      swap3\n      dup3\n      iszero\n      tag_66\n      jumpi\n      swap2\n      0x20\n      mul\n      dup3\n      add\n    tag_67:\n      dup3\n      dup2\n      gt\n      iszero\n      tag_68\n      jumpi\n      dup3\n      mload\n      dup3\n      exp(0x0100, 0x00)\n      dup2\n      sload\n      dup2\n      0xffffffffffffffffffffffffffffffffffffffff\n      mul\n      not\n      and\n      swap1\n      dup4\n      0xffffffffffffffffffffffffffffffffffffffff\n      and\n      mul\n      or\n      swap1\n      sstore\n      pop\n      swap2\n      0x20\n      add\n      swap2\n      swap1\n      0x01\n      add\n      swap1\n      jump(tag_67)\n    tag_68:\n    tag_66:\n      pop\n      swap1\n      pop\n      tag_69\n      swap2\n      swap1\n      tag_70\n      jump\t// in\n    tag_69:\n      pop\n      swap1\n      jump\t// out\n    tag_70:\n    tag_71:\n      dup1\n      dup3\n      gt\n      iszero\n      tag_72\n      jumpi\n      0x00\n      dup2\n      0x00\n      swap1\n      sstore\n      pop\n      0x01\n      add\n      jump(tag_71)\n    tag_72:\n      pop\n      swap1\n      jump\t// out\n        /* \"#utility.yul\":7:133   */\n    tag_73:\n        /* \"#utility.yul\":44:51   */\n      0x00\n        /* \"#utility.yul\":84:126   */\n      0xffffffffffffffffffffffffffffffffffffffff\n        /* \"#utility.yul\":77:82   */\n      dup3\n        /* \"#utility.yul\":73:127   */\n      and\n        /* \"#utility.yul\":62:127   */\n      swap1\n      pop\n        /* \"#utility.yul\":7:133   */\n      swap2\n      swap1\n      pop\n      jump\t// out\n        /* \"#utility.yul\":139:235   */\n    tag_74:\n        /* \"#utility.yul\":176:183   */\n      0x00\n        /* \"#utility.yul\":205:229   */\n      tag_109\n        /* \"#utility.yul\":223:228   */\n      dup3\n        /* \"#utility.yul\":205:229   */\n      tag_73\n      jump\t// in\n    tag_109:\n        /* \"#utility.yul\":194:229   */\n      swap1\n      pop\n        /* \"#utility.yul\":139:235   */\n      swap2\n      swap1\n      pop\n      jump\t// out\n        /* \"#utility.yul\":241:359   */\n    tag_75:\n        /* \"#utility.yul\":328:352   */\n      tag_111\n        /* \"#utility.yul\":346:351   */\n      dup2\n        /* \"#utility.yul\":328:352   */\n      tag_74\n      jump\t// in\n    tag_111:\n        /* \"#utility.yul\":323:326   */\n      dup3\n        /* \"#utility.yul\":316:353   */\n      mstore\n        /* \"#utility.yul\":241:359   */\n      pop\n      pop\n      jump\t// out\n        /* \"#utility.yul\":365:587   */\n    tag_13:\n        /* \"#utility.yul\":458:462   */\n      0x00\n        /* \"#utility.yul\":496:498   */\n      0x20\n        /* \"#utility.yul\":485:494   */\n      dup3\n        /* \"#utility.yul\":481:499   */\n      add\n        /* \"#utility.yul\":473:499   */\n      swap1\n      pop\n        /* \"#utility.yul\":509:580   */\n      tag_113\n        /* \"#utility.yul\":577:578   */\n      0x00\n        /* \"#utility.yul\":566:575   */\n      dup4\n        /* \"#utility.yul\":562:579   */\n      add\n        /* \"#utility.yul\":553:559   */\n      dup5\n        /* \"#utility.yul\":509:580   */\n      tag_75\n      jump\t// in\n    tag_113:\n        /* \"#utility.yul\":365:587   */\n      swap3\n      swap2\n      pop\n      pop\n      jump\t// out\n        /* \"#utility.yul\":593:670   */\n    tag_76:\n        /* \"#utility.yul\":630:637   */\n      0x00\n        /* \"#utility.yul\":659:664   */\n      dup2\n        /* \"#utility.yul\":648:664   */\n      swap1\n      pop\n        /* \"#utility.yul\":593:670   */\n      swap2\n      swap1\n      pop\n      jump\t// out\n        /* \"#utility.yul\":676:794   */\n    tag_77:\n        /* \"#utility.yul\":763:787   */\n      tag_116\n        /* \"#utility.yul\":781:786   */\n      dup2\n        /* \"#utility.yul\":763:787   */\n      tag_76\n      jump\t// in\n    tag_116:\n        /* \"#utility.yul\":758:761   */\n      dup3\n        /* \"#utility.yul\":751:788   */\n      mstore\n        /* \"#utility.yul\":676:794   */\n      pop\n      pop\n      jump\t// out\n        /* \"#utility.yul\":800:1022   */\n    tag_18:\n        /* \"#utility.yul\":893:897   */\n      0x00\n        /* \"#utility.yul\":931:933   */\n      0x20\n        /* \"#utility.yul\":920:929   */\n      dup3\n        /* \"#utility.yul\":916:934   */\n      add\n        /* \"#utility.yul\":908:934   */\n      swap1\n      pop\n        /* \"#utility.yul\":944:1015   */\n      tag_118\n        /* \"#utility.yul\":1012:1013   */\n      0x00\n        /* \"#utility.yul\":1001:1010   */\n      dup4\n        /* \"#utility.yul\":997:1014   */\n      add\n        /* \"#utility.yul\":988:994   */\n      dup5\n        /* \"#utility.yul\":944:1015   */\n      tag_77\n      jump\t// in\n    tag_118:\n        /* \"#utility.yul\":800:1022   */\n      swap3\n      swap2\n      pop\n      pop\n      jump\t// out\n        /* \"#utility.yul\":1109:1226   */\n    tag_79:\n        /* \"#utility.yul\":1218:1219   */\n      0x00\n        /* \"#utility.yul\":1215:1216   */\n      dup1\n        /* \"#utility.yul\":1208:1220   */\n      revert\n        /* \"#utility.yul\":1355:1477   */\n    tag_81:\n        /* \"#utility.yul\":1428:1452   */\n      tag_123\n        /* \"#utility.yul\":1446:1451   */\n      dup2\n        /* \"#utility.yul\":1428:1452   */\n      tag_76\n      jump\t// in\n    tag_123:\n        /* \"#utility.yul\":1421:1426   */\n      dup2\n        /* \"#utility.yul\":1418:1453   */\n      eq\n        /* \"#utility.yul\":1408:1471   */\n      tag_124\n      jumpi\n        /* \"#utility.yul\":1467:1468   */\n      0x00\n        /* \"#utility.yul\":1464:1465   */\n      dup1\n        /* \"#utility.yul\":1457:1469   */\n      revert\n        /* \"#utility.yul\":1408:1471   */\n    tag_124:\n        /* \"#utility.yul\":1355:1477   */\n      pop\n      jump\t// out\n        /* \"#utility.yul\":1483:1622   */\n    tag_82:\n        /* \"#utility.yul\":1529:1534   */\n      0x00\n        /* \"#utility.yul\":1567:1573   */\n      dup2\n        /* \"#utility.yul\":1554:1574   */\n      calldataload\n        /* \"#utility.yul\":1545:1574   */\n      swap1\n      pop\n        /* \"#utility.yul\":1583:1616   */\n      tag_126\n        /* \"#utility.yul\":1610:1615   */\n      dup2\n        /* \"#utility.yul\":1583:1616   */\n      tag_81\n      jump\t// in\n    tag_126:\n        /* \"#utility.yul\":1483:1622   */\n      swap3\n      swap2\n      pop\n      pop\n      jump\t// out\n        /* \"#utility.yul\":1628:1957   */\n    tag_24:\n        /* \"#utility.yul\":1687:1693   */\n      0x00\n        /* \"#utility.yul\":1736:1738   */\n      0x20\n        /* \"#utility.yul\":1724:1733   */\n      dup3\n        /* \"#utility.yul\":1715:1722   */\n      dup5\n        /* \"#utility.yul\":1711:1734   */\n      sub\n        /* \"#utility.yul\":1707:1739   */\n      slt\n        /* \"#utility.yul\":1704:1823   */\n      iszero\n      tag_128\n      jumpi\n        /* \"#utility.yul\":1742:1821   */\n      tag_129\n      tag_79\n      jump\t// in\n    tag_129:\n        /* \"#utility.yul\":1704:1823   */\n    tag_128:\n        /* \"#utility.yul\":1862:1863   */\n      0x00\n        /* \"#utility.yul\":1887:1940   */\n      tag_130\n        /* \"#utility.yul\":1932:1939   */\n      dup5\n        /* \"#utility.yul\":1923:1929   */\n      dup3\n        /* \"#utility.yul\":1912:1921   */\n      dup6\n        /* \"#utility.yul\":1908:1930   */\n      add\n        /* \"#utility.yul\":1887:1940   */\n      tag_82\n      jump\t// in\n    tag_130:\n        /* \"#utility.yul\":1877:1940   */\n      swap2\n      pop\n        /* \"#utility.yul\":1833:1950   */\n      pop\n        /* \"#utility.yul\":1628:1957   */\n      swap3\n      swap2\n      pop\n      pop\n      jump\t// out\n        /* \"#utility.yul\":1963:2132   */\n    tag_83:\n        /* \"#utility.yul\":2047:2058   */\n      0x00\n        /* \"#utility.yul\":2081:2087   */\n      dup3\n        /* \"#utility.yul\":2076:2079   */\n      dup3\n        /* \"#utility.yul\":2069:2088   */\n      mstore\n        /* \"#utility.yul\":2121:2125   */\n      0x20\n        /* \"#utility.yul\":2116:2119   */\n      dup3\n        /* \"#utility.yul\":2112:2126   */\n      add\n        /* \"#utility.yul\":2097:2126   */\n      swap1\n      pop\n        /* \"#utility.yul\":1963:2132   */\n      swap3\n      swap2\n      pop\n      pop\n      jump\t// out\n        /* \"#utility.yul\":2138:2316   */\n    tag_84:\n        /* \"#utility.yul\":2278:2308   */\n      0x4f6e6c79206d616e616765722063616e20616363657373207468697300000000\n        /* \"#utility.yul\":2274:2275   */\n      0x00\n        /* \"#utility.yul\":2266:2272   */\n      dup3\n        /* \"#utility.yul\":2262:2276   */\n      add\n        /* \"#utility.yul\":2255:2309   */\n      mstore\n        /* \"#utility.yul\":2138:2316   */\n      pop\n      jump\t// out\n        /* \"#utility.yul\":2322:2688   */\n    tag_85:\n        /* \"#utility.yul\":2464:2467   */\n      0x00\n        /* \"#utility.yul\":2485:2552   */\n      tag_134\n        /* \"#utility.yul\":2549:2551   */\n      0x1c\n        /* \"#utility.yul\":2544:2547   */\n      dup4\n        /* \"#utility.yul\":2485:2552   */\n      tag_83\n      jump\t// in\n    tag_134:\n        /* \"#utility.yul\":2478:2552   */\n      swap2\n      pop\n        /* \"#utility.yul\":2561:2654   */\n      tag_135\n        /* \"#utility.yul\":2650:2653   */\n      dup3\n        /* \"#utility.yul\":2561:2654   */\n      tag_84\n      jump\t// in\n    tag_135:\n        /* \"#utility.yul\":2679:2681   */\n      0x20\n        /* \"#utility.yul\":2674:2677   */\n      dup3\n        /* \"#utility.yul\":2670:2682   */\n      add\n        /* \"#utility.yul\":2663:2682   */\n      swap1\n      pop\n        /* \"#utility.yul\":2322:2688   */\n      swap2\n      swap1\n      pop\n      jump\t// out\n        /* \"#utility.yul\":2694:3113   */\n    tag_30:\n        /* \"#utility.yul\":2860:2864   */\n      0x00\n        /* \"#utility.yul\":2898:2900   */\n      0x20\n        /* \"#utility.yul\":2887:2896   */\n      dup3\n        /* \"#utility.yul\":2883:2901   */\n      add\n        /* \"#utility.yul\":2875:2901   */\n      swap1\n      pop\n        /* \"#utility.yul\":2947:2956   */\n      dup2\n        /* \"#utility.yul\":2941:2945   */\n      dup2\n        /* \"#utility.yul\":2937:2957   */\n      sub\n        /* \"#utility.yul\":2933:2934   */\n      0x00\n        /* \"#utility.yul\":2922:2931   */\n      dup4\n        /* \"#utility.yul\":2918:2935   */\n      add\n        /* \"#utility.yul\":2911:2958   */\n      mstore\n        /* \"#utility.yul\":2975:3106   */\n      tag_137\n        /* \"#utility.yul\":3101:3105   */\n      dup2\n        /* \"#utility.yul\":2975:3106   */\n      tag_85\n      jump\t// in\n    tag_137:\n        /* \"#utility.yul\":2967:3106   */\n      swap1\n      pop\n        /* \"#utility.yul\":2694:3113   */\n      swap2\n      swap1\n      pop\n      jump\t// out\n        /* \"#utility.yul\":3119:3299   */\n    tag_36:\n        /* \"#utility.yul\":3167:3244   */\n      0x4e487b7100000000000000000000000000000000000000000000000000000000\n        /* \"#utility.yul\":3164:3165   */\n      0x00\n        /* \"#utility.yul\":3157:3245   */\n      mstore\n        /* \"#utility.yul\":3264:3268   */\n      0x32\n        /* \"#utility.yul\":3261:3262   */\n      0x04\n        /* \"#utility.yul\":3254:3269   */\n      mstore\n        /* \"#utility.yul\":3288:3292   */\n      0x24\n        /* \"#utility.yul\":3285:3286   */\n      0x00\n        /* \"#utility.yul\":3278:3293   */\n      revert\n        /* \"#utility.yul\":3305:3485   */\n    tag_42:\n        /* \"#utility.yul\":3353:3430   */\n      0x4e487b7100000000000000000000000000000000000000000000000000000000\n        /* \"#utility.yul\":3350:3351   */\n      0x00\n        /* \"#utility.yul\":3343:3431   */\n      mstore\n        /* \"#utility.yul\":3450:3454   */\n      0x41\n        /* \"#utility.yul\":3447:3448   */\n      0x04\n        /* \"#utility.yul\":3440:3455   */\n      mstore\n        /* \"#utility.yul\":3474:3478   */\n      0x24\n        /* \"#utility.yul\":3471:3472   */\n      0x00\n        /* \"#utility.yul\":3464:3479   */\n      revert\n        /* \"#utility.yul\":3491:3668   */\n    tag_86:\n        /* \"#utility.yul\":3631:3660   */\n      0x4d616e616765722063616e277420706172746963697061746521210000000000\n        /* \"#utility.yul\":3627:3628   */\n      0x00\n        /* \"#utility.yul\":3619:3625   */\n      dup3\n        /* \"#utility.yul\":3615:3629   */\n      add\n        /* \"#utility.yul\":3608:3661   */\n      mstore\n        /* \"#utility.yul\":3491:3668   */\n      pop\n      jump\t// out\n        /* \"#utility.yul\":3674:4040   */\n    tag_87:\n        /* \"#utility.yul\":3816:3819   */\n      0x00\n        /* \"#utility.yul\":3837:3904   */\n      tag_142\n        /* \"#utility.yul\":3901:3903   */\n      0x1b\n        /* \"#utility.yul\":3896:3899   */\n      dup4\n        /* \"#utility.yul\":3837:3904   */\n      tag_83\n      jump\t// in\n    tag_142:\n        /* \"#utility.yul\":3830:3904   */\n      swap2\n      pop\n        /* \"#utility.yul\":3913:4006   */\n      tag_143\n        /* \"#utility.yul\":4002:4005   */\n      dup3\n        /* \"#utility.yul\":3913:4006   */\n      tag_86\n      jump\t// in\n    tag_143:\n        /* \"#utility.yul\":4031:4033   */\n      0x20\n        /* \"#utility.yul\":4026:4029   */\n      dup3\n        /* \"#utility.yul\":4022:4034   */\n      add\n        /* \"#utility.yul\":4015:4034   */\n      swap1\n      pop\n        /* \"#utility.yul\":3674:4040   */\n      swap2\n      swap1\n      pop\n      jump\t// out\n        /* \"#utility.yul\":4046:4465   */\n    tag_49:\n        /* \"#utility.yul\":4212:4216   */\n      0x00\n        /* \"#utility.yul\":4250:4252   */\n      0x20\n        /* \"#utility.yul\":4239:4248   */\n      dup3\n        /* \"#utility.yul\":4235:4253   */\n      add\n        /* \"#utility.yul\":4227:4253   */\n      swap1\n      pop\n        /* \"#utility.yul\":4299:4308   */\n      dup2\n        /* \"#utility.yul\":4293:4297   */\n      dup2\n        /* \"#utility.yul\":4289:4309   */\n      sub\n        /* \"#utility.yul\":4285:4286   */\n      0x00\n        /* \"#utility.yul\":4274:4283   */\n      dup4\n        /* \"#utility.yul\":4270:4287   */\n      add\n        /* \"#utility.yul\":4263:4310   */\n      mstore\n        /* \"#utility.yul\":4327:4458   */\n      tag_145\n        /* \"#utility.yul\":4453:4457   */\n      dup2\n        /* \"#utility.yul\":4327:4458   */\n      tag_87\n      jump\t// in\n    tag_145:\n        /* \"#utility.yul\":4319:4458   */\n      swap1\n      pop\n        /* \"#utility.yul\":4046:4465   */\n      swap2\n      swap1\n      pop\n      jump\t// out\n        /* \"#utility.yul\":4471:4651   */\n    tag_88:\n        /* \"#utility.yul\":4519:4596   */\n      0x4e487b7100000000000000000000000000000000000000000000000000000000\n        /* \"#utility.yul\":4516:4517   */\n      0x00\n        /* \"#utility.yul\":4509:4597   */\n      mstore\n        /* \"#utility.yul\":4616:4620   */\n      0x11\n        /* \"#utility.yul\":4613:4614   */\n      0x04\n        /* \"#utility.yul\":4606:4621   */\n      mstore\n        /* \"#utility.yul\":4640:4644   */\n      0x24\n        /* \"#utility.yul\":4637:4638   */\n      0x00\n        /* \"#utility.yul\":4630:4645   */\n      revert\n        /* \"#utility.yul\":4657:4848   */\n    tag_53:\n        /* \"#utility.yul\":4697:4700   */\n      0x00\n        /* \"#utility.yul\":4716:4736   */\n      tag_148\n        /* \"#utility.yul\":4734:4735   */\n      dup3\n        /* \"#utility.yul\":4716:4736   */\n      tag_76\n      jump\t// in\n    tag_148:\n        /* \"#utility.yul\":4711:4736   */\n      swap2\n      pop\n        /* \"#utility.yul\":4750:4770   */\n      tag_149\n        /* \"#utility.yul\":4768:4769   */\n      dup4\n        /* \"#utility.yul\":4750:4770   */\n      tag_76\n      jump\t// in\n    tag_149:\n        /* \"#utility.yul\":4745:4770   */\n      swap3\n      pop\n        /* \"#utility.yul\":4793:4794   */\n      dup3\n        /* \"#utility.yul\":4790:4791   */\n      dup3\n        /* \"#utility.yul\":4786:4795   */\n      add\n        /* \"#utility.yul\":4779:4795   */\n      swap1\n      pop\n        /* \"#utility.yul\":4814:4817   */\n      dup1\n        /* \"#utility.yul\":4811:4812   */\n      dup3\n        /* \"#utility.yul\":4808:4818   */\n      gt\n        /* \"#utility.yul\":4805:4841   */\n      iszero\n      tag_150\n      jumpi\n        /* \"#utility.yul\":4821:4839   */\n      tag_151\n      tag_88\n      jump\t// in\n    tag_151:\n        /* \"#utility.yul\":4805:4841   */\n    tag_150:\n        /* \"#utility.yul\":4657:4848   */\n      swap3\n      swap2\n      pop\n      pop\n      jump\t// out\n        /* \"#utility.yul\":4854:5048   */\n    tag_61:\n        /* \"#utility.yul\":4894:4898   */\n      0x00\n        /* \"#utility.yul\":4914:4934   */\n      tag_153\n        /* \"#utility.yul\":4932:4933   */\n      dup3\n        /* \"#utility.yul\":4914:4934   */\n      tag_76\n      jump\t// in\n    tag_153:\n        /* \"#utility.yul\":4909:4934   */\n      swap2\n      pop\n        /* \"#utility.yul\":4948:4968   */\n      tag_154\n        /* \"#utility.yul\":4966:4967   */\n      dup4\n        /* \"#utility.yul\":4948:4968   */\n      tag_76\n      jump\t// in\n    tag_154:\n        /* \"#utility.yul\":4943:4968   */\n      swap3\n      pop\n        /* \"#utility.yul\":4992:4993   */\n      dup3\n        /* \"#utility.yul\":4989:4990   */\n      dup3\n        /* \"#utility.yul\":4985:4994   */\n      sub\n        /* \"#utility.yul\":4977:4994   */\n      swap1\n      pop\n        /* \"#utility.yul\":5016:5017   */\n      dup2\n        /* \"#utility.yul\":5010:5014   */\n      dup2\n        /* \"#utility.yul\":5007:5018   */\n      gt\n        /* \"#utility.yul\":5004:5041   */\n      iszero\n      tag_155\n      jumpi\n        /* \"#utility.yul\":5021:5039   */\n      tag_156\n      tag_88\n      jump\t// in\n    tag_156:\n        /* \"#utility.yul\":5004:5041   */\n    tag_155:\n        /* \"#utility.yul\":4854:5048   */\n      swap3\n      swap2\n      pop\n      pop\n      jump\t// out\n        /* \"#utility.yul\":5054:5131   */\n    tag_89:\n        /* \"#utility.yul\":5091:5098   */\n      0x00\n        /* \"#utility.yul\":5120:5125   */\n      dup2\n        /* \"#utility.yul\":5109:5125   */\n      swap1\n      pop\n        /* \"#utility.yul\":5054:5131   */\n      swap2\n      swap1\n      pop\n      jump\t// out\n        /* \"#utility.yul\":5137:5216   */\n    tag_90:\n        /* \"#utility.yul\":5176:5183   */\n      0x00\n        /* \"#utility.yul\":5205:5210   */\n      dup2\n        /* \"#utility.yul\":5194:5210   */\n      swap1\n      pop\n        /* \"#utility.yul\":5137:5216   */\n      swap2\n      swap1\n      pop\n      jump\t// out\n        /* \"#utility.yul\":5222:5379   */\n    tag_91:\n        /* \"#utility.yul\":5327:5372   */\n      tag_160\n        /* \"#utility.yul\":5347:5371   */\n      tag_161\n        /* \"#utility.yul\":5365:5370   */\n      dup3\n        /* \"#utility.yul\":5347:5371   */\n      tag_89\n      jump\t// in\n    tag_161:\n        /* \"#utility.yul\":5327:5372   */\n      tag_90\n      jump\t// in\n    tag_160:\n        /* \"#utility.yul\":5322:5325   */\n      dup3\n        /* \"#utility.yul\":5315:5373   */\n      mstore\n        /* \"#utility.yul\":5222:5379   */\n      pop\n      pop\n      jump\t// out\n        /* \"#utility.yul\":5385:5464   */\n    tag_92:\n        /* \"#utility.yul\":5424:5431   */\n      0x00\n        /* \"#utility.yul\":5453:5458   */\n      dup2\n        /* \"#utility.yul\":5442:5458   */\n      swap1\n      pop\n        /* \"#utility.yul\":5385:5464   */\n      swap2\n      swap1\n      pop\n      jump\t// out\n        /* \"#utility.yul\":5470:5627   */\n    tag_93:\n        /* \"#utility.yul\":5575:5620   */\n      tag_164\n        /* \"#utility.yul\":5595:5619   */\n      tag_165\n        /* \"#utility.yul\":5613:5618   */\n      dup3\n        /* \"#utility.yul\":5595:5619   */\n      tag_76\n      jump\t// in\n    tag_165:\n        /* \"#utility.yul\":5575:5620   */\n      tag_92\n      jump\t// in\n    tag_164:\n        /* \"#utility.yul\":5570:5573   */\n      dup3\n        /* \"#utility.yul\":5563:5621   */\n      mstore\n        /* \"#utility.yul\":5470:5627   */\n      pop\n      pop\n      jump\t// out\n        /* \"#utility.yul\":5633:5744   */\n    tag_94:\n        /* \"#utility.yul\":5697:5703   */\n      0x00\n        /* \"#utility.yul\":5731:5736   */\n      dup2\n        /* \"#utility.yul\":5725:5737   */\n      sload\n        /* \"#utility.yul\":5715:5737   */\n      swap1\n      pop\n        /* \"#utility.yul\":5633:5744   */\n      swap2\n      swap1\n      pop\n      jump\t// out\n        /* \"#utility.yul\":5750:5913   */\n    tag_95:\n        /* \"#utility.yul\":5867:5878   */\n      0x00\n        /* \"#utility.yul\":5904:5907   */\n      dup2\n        /* \"#utility.yul\":5889:5907   */\n      swap1\n      pop\n        /* \"#utility.yul\":5750:5913   */\n      swap3\n      swap2\n      pop\n      pop\n      jump\t// out\n        /* \"#utility.yul\":5919:6075   */\n    tag_96:\n        /* \"#utility.yul\":5983:5987   */\n      0x00\n        /* \"#utility.yul\":6006:6009   */\n      dup2\n        /* \"#utility.yul\":5998:6009   */\n      swap1\n      pop\n        /* \"#utility.yul\":6029:6032   */\n      dup2\n        /* \"#utility.yul\":6026:6027   */\n      0x00\n        /* \"#utility.yul\":6019:6033   */\n      mstore\n        /* \"#utility.yul\":6063:6067   */\n      0x20\n        /* \"#utility.yul\":6060:6061   */\n      0x00\n        /* \"#utility.yul\":6050:6068   */\n      keccak256\n        /* \"#utility.yul\":6042:6068   */\n      swap1\n      pop\n        /* \"#utility.yul\":5919:6075   */\n      swap2\n      swap1\n      pop\n      jump\t// out\n        /* \"#utility.yul\":6081:6197   */\n    tag_97:\n        /* \"#utility.yul\":6166:6190   */\n      tag_170\n        /* \"#utility.yul\":6184:6189   */\n      dup2\n        /* \"#utility.yul\":6166:6190   */\n      tag_74\n      jump\t// in\n    tag_170:\n        /* \"#utility.yul\":6161:6164   */\n      dup3\n        /* \"#utility.yul\":6154:6191   */\n      mstore\n        /* \"#utility.yul\":6081:6197   */\n      pop\n      pop\n      jump\t// out\n        /* \"#utility.yul\":6203:6398   */\n    tag_98:\n        /* \"#utility.yul\":6280:6290   */\n      0x00\n        /* \"#utility.yul\":6301:6355   */\n      tag_172\n        /* \"#utility.yul\":6351:6354   */\n      dup4\n        /* \"#utility.yul\":6343:6349   */\n      dup4\n        /* \"#utility.yul\":6301:6355   */\n      tag_97\n      jump\t// in\n    tag_172:\n        /* \"#utility.yul\":6387:6391   */\n      0x20\n        /* \"#utility.yul\":6382:6385   */\n      dup4\n        /* \"#utility.yul\":6378:6392   */\n      add\n        /* \"#utility.yul\":6364:6392   */\n      swap1\n      pop\n        /* \"#utility.yul\":6203:6398   */\n      swap3\n      swap2\n      pop\n      pop\n      jump\t// out\n        /* \"#utility.yul\":6404:6506   */\n    tag_99:\n        /* \"#utility.yul\":6446:6454   */\n      0x00\n        /* \"#utility.yul\":6493:6498   */\n      dup2\n        /* \"#utility.yul\":6490:6491   */\n      0x00\n        /* \"#utility.yul\":6486:6499   */\n      shr\n        /* \"#utility.yul\":6465:6499   */\n      swap1\n      pop\n        /* \"#utility.yul\":6404:6506   */\n      swap2\n      swap1\n      pop\n      jump\t// out\n        /* \"#utility.yul\":6512:6651   */\n    tag_100:\n        /* \"#utility.yul\":6562:6569   */\n      0x00\n        /* \"#utility.yul\":6602:6644   */\n      0xffffffffffffffffffffffffffffffffffffffff\n        /* \"#utility.yul\":6595:6600   */\n      dup3\n        /* \"#utility.yul\":6591:6645   */\n      and\n        /* \"#utility.yul\":6580:6645   */\n      swap1\n      pop\n        /* \"#utility.yul\":6512:6651   */\n      swap2\n      swap1\n      pop\n      jump\t// out\n        /* \"#utility.yul\":6657:6823   */\n    tag_101:\n        /* \"#utility.yul\":6726:6731   */\n      0x00\n        /* \"#utility.yul\":6751:6817   */\n      tag_176\n        /* \"#utility.yul\":6782:6816   */\n      tag_177\n        /* \"#utility.yul\":6805:6815   */\n      dup4\n        /* \"#utility.yul\":6782:6816   */\n      tag_99\n      jump\t// in\n    tag_177:\n        /* \"#utility.yul\":6751:6817   */\n      tag_100\n      jump\t// in\n    tag_176:\n        /* \"#utility.yul\":6742:6817   */\n      swap1\n      pop\n        /* \"#utility.yul\":6657:6823   */\n      swap2\n      swap1\n      pop\n      jump\t// out\n        /* \"#utility.yul\":6829:6973   */\n    tag_102:\n        /* \"#utility.yul\":6884:6889   */\n      0x00\n        /* \"#utility.yul\":6909:6966   */\n      tag_179\n        /* \"#utility.yul\":6960:6964   */\n      dup3\n        /* \"#utility.yul\":6954:6965   */\n      sload\n        /* \"#utility.yul\":6909:6966   */\n      tag_101\n      jump\t// in\n    tag_179:\n        /* \"#utility.yul\":6900:6966   */\n      swap1\n      pop\n        /* \"#utility.yul\":6829:6973   */\n      swap2\n      swap1\n      pop\n      jump\t// out\n        /* \"#utility.yul\":6979:7089   */\n    tag_103:\n        /* \"#utility.yul\":7046:7050   */\n      0x00\n        /* \"#utility.yul\":7078:7082   */\n      0x01\n        /* \"#utility.yul\":7073:7076   */\n      dup3\n        /* \"#utility.yul\":7069:7083   */\n      add\n        /* \"#utility.yul\":7061:7083   */\n      swap1\n      pop\n        /* \"#utility.yul\":6979:7089   */\n      swap2\n      swap1\n      pop\n      jump\t// out\n        /* \"#utility.yul\":7125:7920   */\n    tag_104:\n        /* \"#utility.yul\":7259:7262   */\n      0x00\n        /* \"#utility.yul\":7288:7339   */\n      tag_182\n        /* \"#utility.yul\":7333:7338   */\n      dup3\n        /* \"#utility.yul\":7288:7339   */\n      tag_94\n      jump\t// in\n    tag_182:\n        /* \"#utility.yul\":7355:7459   */\n      tag_183\n        /* \"#utility.yul\":7452:7458   */\n      dup2\n        /* \"#utility.yul\":7447:7450   */\n      dup6\n        /* \"#utility.yul\":7355:7459   */\n      tag_95\n      jump\t// in\n    tag_183:\n        /* \"#utility.yul\":7348:7459   */\n      swap4\n      pop\n        /* \"#utility.yul\":7483:7536   */\n      tag_184\n        /* \"#utility.yul\":7530:7535   */\n      dup4\n        /* \"#utility.yul\":7483:7536   */\n      tag_96\n      jump\t// in\n    tag_184:\n        /* \"#utility.yul\":7559:7566   */\n      dup1\n        /* \"#utility.yul\":7590:7591   */\n      0x00\n        /* \"#utility.yul\":7575:7895   */\n    tag_185:\n        /* \"#utility.yul\":7600:7606   */\n      dup4\n        /* \"#utility.yul\":7597:7598   */\n      dup2\n        /* \"#utility.yul\":7594:7607   */\n      lt\n        /* \"#utility.yul\":7575:7895   */\n      iszero\n      tag_187\n      jumpi\n        /* \"#utility.yul\":7670:7714   */\n      tag_188\n        /* \"#utility.yul\":7707:7713   */\n      dup3\n        /* \"#utility.yul\":7670:7714   */\n      tag_102\n      jump\t// in\n    tag_188:\n        /* \"#utility.yul\":7734:7805   */\n      tag_189\n        /* \"#utility.yul\":7801:7804   */\n      dup9\n        /* \"#utility.yul\":7786:7799   */\n      dup3\n        /* \"#utility.yul\":7734:7805   */\n      tag_98\n      jump\t// in\n    tag_189:\n        /* \"#utility.yul\":7727:7805   */\n      swap8\n      pop\n        /* \"#utility.yul\":7828:7885   */\n      tag_190\n        /* \"#utility.yul\":7878:7884   */\n      dup4\n        /* \"#utility.yul\":7828:7885   */\n      tag_103\n      jump\t// in\n    tag_190:\n        /* \"#utility.yul\":7818:7885   */\n      swap3\n      pop\n        /* \"#utility.yul\":7635:7895   */\n      pop\n        /* \"#utility.yul\":7622:7623   */\n      0x01\n        /* \"#utility.yul\":7619:7620   */\n      dup2\n        /* \"#utility.yul\":7615:7624   */\n      add\n        /* \"#utility.yul\":7610:7624   */\n      swap1\n      pop\n        /* \"#utility.yul\":7575:7895   */\n      jump(tag_185)\n    tag_187:\n        /* \"#utility.yul\":7579:7593   */\n      pop\n        /* \"#utility.yul\":7911:7914   */\n      dup6\n        /* \"#utility.yul\":7904:7914   */\n      swap4\n      pop\n        /* \"#utility.yul\":7264:7920   */\n      pop\n      pop\n      pop\n        /* \"#utility.yul\":7125:7920   */\n      swap3\n      swap2\n      pop\n      pop\n      jump\t// out\n        /* \"#utility.yul\":7926:8537   */\n    tag_63:\n        /* \"#utility.yul\":8141:8144   */\n      0x00\n        /* \"#utility.yul\":8156:8231   */\n      tag_192\n        /* \"#utility.yul\":8227:8230   */\n      dup3\n        /* \"#utility.yul\":8218:8224   */\n      dup7\n        /* \"#utility.yul\":8156:8231   */\n      tag_91\n      jump\t// in\n    tag_192:\n        /* \"#utility.yul\":8256:8258   */\n      0x20\n        /* \"#utility.yul\":8251:8254   */\n      dup3\n        /* \"#utility.yul\":8247:8259   */\n      add\n        /* \"#utility.yul\":8240:8259   */\n      swap2\n      pop\n        /* \"#utility.yul\":8269:8344   */\n      tag_193\n        /* \"#utility.yul\":8340:8343   */\n      dup3\n        /* \"#utility.yul\":8331:8337   */\n      dup6\n        /* \"#utility.yul\":8269:8344   */\n      tag_93\n      jump\t// in\n    tag_193:\n        /* \"#utility.yul\":8369:8371   */\n      0x20\n        /* \"#utility.yul\":8364:8367   */\n      dup3\n        /* \"#utility.yul\":8360:8372   */\n      add\n        /* \"#utility.yul\":8353:8372   */\n      swap2\n      pop\n        /* \"#utility.yul\":8389:8511   */\n      tag_194\n        /* \"#utility.yul\":8507:8510   */\n      dup3\n        /* \"#utility.yul\":8498:8504   */\n      dup5\n        /* \"#utility.yul\":8389:8511   */\n      tag_104\n      jump\t// in\n    tag_194:\n        /* \"#utility.yul\":8382:8511   */\n      swap2\n      pop\n        /* \"#utility.yul\":8528:8531   */\n      dup2\n        /* \"#utility.yul\":8521:8531   */\n      swap1\n      pop\n        /* \"#utility.yul\":7926:8537   */\n      swap5\n      swap4\n      pop\n      pop\n      pop\n      pop\n      jump\t// out\n        /* \"#utility.yul\":8543:8723   */\n    tag_105:\n        /* \"#utility.yul\":8591:8668   */\n      0x4e487b7100000000000000000000000000000000000000000000000000000000\n        /* \"#utility.yul\":8588:8589   */\n      0x00\n        /* \"#utility.yul\":8581:8669   */\n      mstore\n        /* \"#utility.yul\":8688:8692   */\n      0x12\n        /* \"#utility.yul\":8685:8686   */\n      0x04\n        /* \"#utility.yul\":8678:8693   */\n      mstore\n        /* \"#utility.yul\":8712:8716   */\n      0x24\n        /* \"#utility.yul\":8709:8710   */\n      0x00\n        /* \"#utility.yul\":8702:8717   */\n      revert\n        /* \"#utility.yul\":8729:8905   */\n    tag_65:\n        /* \"#utility.yul\":8761:8762   */\n      0x00\n        /* \"#utility.yul\":8778:8798   */\n      tag_197\n        /* \"#utility.yul\":8796:8797   */\n      dup3\n        /* \"#utility.yul\":8778:8798   */\n      tag_76\n      jump\t// in\n    tag_197:\n        /* \"#utility.yul\":8773:8798   */\n      swap2\n      pop\n        /* \"#utility.yul\":8812:8832   */\n      tag_198\n        /* \"#utility.yul\":8830:8831   */\n      dup4\n        /* \"#utility.yul\":8812:8832   */\n      tag_76\n      jump\t// in\n    tag_198:\n        /* \"#utility.yul\":8807:8832   */\n      swap3\n      pop\n        /* \"#utility.yul\":8851:8852   */\n      dup3\n        /* \"#utility.yul\":8841:8876   */\n      tag_199\n      jumpi\n        /* \"#utility.yul\":8856:8874   */\n      tag_200\n      tag_105\n      jump\t// in\n    tag_200:\n        /* \"#utility.yul\":8841:8876   */\n    tag_199:\n        /* \"#utility.yul\":8897:8898   */\n      dup3\n        /* \"#utility.yul\":8894:8895   */\n      dup3\n        /* \"#utility.yul\":8890:8899   */\n      mod\n        /* \"#utility.yul\":8885:8899   */\n      swap1\n      pop\n        /* \"#utility.yul\":8729:8905   */\n      swap3\n      swap2\n      pop\n      pop\n      jump\t// out\n\n    auxdata: 0xa2646970667358221220741fe2d535df2fd4a2e560e3030ce90cebb9bc678c01815fe00ee2e1a4a72ed364736f6c63430008160033\n}\n",
				"bytecode": {
					"linkReferences": {},
					"object": "608060405234801561000f575f80fd5b50335f806101000a81548173ffffffffffffffffffffffffffffffffffffffff021916908373ffffffffffffffffffffffffffffffffffffffff160217905550610a3c8061005c5f395ff3fe608060405260043610610049575f3560e01c806307a0ee2d1461004d578063481c6a7514610057578063b69ef8a814610081578063e802e757146100ab578063f71d96cb146100b5575b5f80fd5b6100556100f1565b005b348015610062575f80fd5b5061006b610278565b60405161007891906105a8565b60405180910390f35b34801561008c575f80fd5b5061009561029b565b6040516100a291906105d9565b60405180910390f35b6100b36102a1565b005b3480156100c0575f80fd5b506100db60048036038101906100d69190610620565b6103a8565b6040516100e891906105a8565b60405180910390f35b5f8054906101000a900473ffffffffffffffffffffffffffffffffffffffff1673ffffffffffffffffffffffffffffffffffffffff163373ffffffffffffffffffffffffffffffffffffffff161461017e576040517f08c379a0000000000000000000000000000000000000000000000000000000008152600401610175906106a5565b60405180910390fd5b5f6101876103e3565b90505f6001828154811061019e5761019d6106c3565b5b905f5260205f20015f9054906101000a900473ffffffffffffffffffffffffffffffffffffffff1690508073ffffffffffffffffffffffffffffffffffffffff166108fc60025490811502906040515f60405180830381858888f1935050505015801561020d573d5f803e3d5ffd5b505f6002819055505f67ffffffffffffffff81111561022f5761022e6106f0565b5b60405190808252806020026020018201604052801561025d5781602001602082028036833780820191505090505b50600190805190602001906102739291906104c7565b505050565b5f8054906101000a900473ffffffffffffffffffffffffffffffffffffffff1681565b60025481565b5f8054906101000a900473ffffffffffffffffffffffffffffffffffffffff1673ffffffffffffffffffffffffffffffffffffffff163373ffffffffffffffffffffffffffffffffffffffff160361032e576040517f08c379a000000000000000000000000000000000000000000000000000000000815260040161032590610767565b60405180910390fd5b600133908060018154018082558091505060019003905f5260205f20015f9091909190916101000a81548173ffffffffffffffffffffffffffffffffffffffff021916908373ffffffffffffffffffffffffffffffffffffffff1602179055503460025f82825461039f91906107b2565b92505081905550565b600181815481106103b7575f80fd5b905f5260205f20015f915054906101000a900473ffffffffffffffffffffffffffffffffffffffff1681565b5f805f9054906101000a900473ffffffffffffffffffffffffffffffffffffffff1673ffffffffffffffffffffffffffffffffffffffff163373ffffffffffffffffffffffffffffffffffffffff1614610472576040517f08c379a0000000000000000000000000000000000000000000000000000000008152600401610469906106a5565b60405180910390fd5b5f60014361048091906107e5565b4042600160405160200161049693929190610971565b604051602081830303815290604052805190602001205f1c9050600180549050816104c191906109d6565b91505090565b828054828255905f5260205f2090810192821561053d579160200282015b8281111561053c578251825f6101000a81548173ffffffffffffffffffffffffffffffffffffffff021916908373ffffffffffffffffffffffffffffffffffffffff160217905550916020019190600101906104e5565b5b50905061054a919061054e565b5090565b5b80821115610565575f815f90555060010161054f565b5090565b5f73ffffffffffffffffffffffffffffffffffffffff82169050919050565b5f61059282610569565b9050919050565b6105a281610588565b82525050565b5f6020820190506105bb5f830184610599565b92915050565b5f819050919050565b6105d3816105c1565b82525050565b5f6020820190506105ec5f8301846105ca565b92915050565b5f80fd5b6105ff816105c1565b8114610609575f80fd5b50565b5f8135905061061a816105f6565b92915050565b5f60208284031215610635576106346105f2565b5b5f6106428482850161060c565b91505092915050565b5f82825260208201905092915050565b7f4f6e6c79206d616e616765722063616e206163636573732074686973000000005f82015250565b5f61068f601c8361064b565b915061069a8261065b565b602082019050919050565b5f6020820190508181035f8301526106bc81610683565b9050919050565b7f4e487b71000000000000000000000000000000000000000000000000000000005f52603260045260245ffd5b7f4e487b71000000000000000000000000000000000000000000000000000000005f52604160045260245ffd5b7f4d616e616765722063616e2774207061727469636970617465212100000000005f82015250565b5f610751601b8361064b565b915061075c8261071d565b602082019050919050565b5f6020820190508181035f83015261077e81610745565b9050919050565b7f4e487b71000000000000000000000000000000000000000000000000000000005f52601160045260245ffd5b5f6107bc826105c1565b91506107c7836105c1565b92508282019050808211156107df576107de610785565b5b92915050565b5f6107ef826105c1565b91506107fa836105c1565b925082820390508181111561081257610811610785565b5b92915050565b5f819050919050565b5f819050919050565b61083b61083682610818565b610821565b82525050565b5f819050919050565b61085b610856826105c1565b610841565b82525050565b5f81549050919050565b5f81905092915050565b5f819050815f5260205f209050919050565b61089081610588565b82525050565b5f6108a18383610887565b60208301905092915050565b5f815f1c9050919050565b5f73ffffffffffffffffffffffffffffffffffffffff82169050919050565b5f6108e96108e4836108ad565b6108b8565b9050919050565b5f6108fb82546108d7565b9050919050565b5f600182019050919050565b5f61091882610861565b610922818561086b565b935061092d83610875565b805f5b8381101561096457610941826108f0565b61094b8882610896565b975061095683610902565b925050600181019050610930565b5085935050505092915050565b5f61097c828661082a565b60208201915061098c828561084a565b60208201915061099c828461090e565b9150819050949350505050565b7f4e487b71000000000000000000000000000000000000000000000000000000005f52601260045260245ffd5b5f6109e0826105c1565b91506109eb836105c1565b9250826109fb576109fa6109a9565b5b82820690509291505056fea2646970667358221220741fe2d535df2fd4a2e560e3030ce90cebb9bc678c01815fe00ee2e1a4a72ed364736f6c63430008160033",
					"opcodes": "PUSH1 0x80 PUSH1 0x40 MSTORE CALLVALUE DUP1 ISZERO PUSH2 0xF JUMPI PUSH0 DUP1 REVERT JUMPDEST POP CALLER PUSH0 DUP1 PUSH2 0x100 EXP DUP2 SLOAD DUP2 PUSH20 0xFFFFFFFFFFFFFFFFFFFFFFFFFFFFFFFFFFFFFFFF MUL NOT AND SWAP1 DUP4 PUSH20 0xFFFFFFFFFFFFFFFFFFFFFFFFFFFFFFFFFFFFFFFF AND MUL OR SWAP1 SSTORE POP PUSH2 0xA3C DUP1 PUSH2 0x5C PUSH0 CODECOPY PUSH0 RETURN INVALID PUSH1 0x80 PUSH1 0x40 MSTORE PUSH1 0x4 CALLDATASIZE LT PUSH2 0x49 JUMPI PUSH0 CALLDATALOAD PUSH1 0xE0 SHR DUP1 PUSH4 0x7A0EE2D EQ PUSH2 0x4D JUMPI DUP1 PUSH4 0x481C6A75 EQ PUSH2 0x57 JUMPI DUP1 PUSH4 0xB69EF8A8 EQ PUSH2 0x81 JUMPI DUP1 PUSH4 0xE802E757 EQ PUSH2 0xAB JUMPI DUP1 PUSH4 0xF71D96CB EQ PUSH2 0xB5 JUMPI JUMPDEST PUSH0 DUP1 REVERT JUMPDEST PUSH2 0x55 PUSH2 0xF1 JUMP JUMPDEST STOP JUMPDEST CALLVALUE DUP1 ISZERO PUSH2 0x62 JUMPI PUSH0 DUP1 REVERT JUMPDEST POP PUSH2 0x6B PUSH2 0x278 JUMP JUMPDEST PUSH1 0x40 MLOAD PUSH2 0x78 SWAP2 SWAP1 PUSH2 0x5A8 JUMP JUMPDEST PUSH1 0x40 MLOAD DUP1 SWAP2 SUB SWAP1 RETURN JUMPDEST CALLVALUE DUP1 ISZERO PUSH2 0x8C JUMPI PUSH0 DUP1 REVERT JUMPDEST POP PUSH2 0x95 PUSH2 0x29B JUMP JUMPDEST PUSH1 0x40 MLOAD PUSH2 0xA2 SWAP2 SWAP1 PUSH2 0x5D9 JUMP JUMPDEST PUSH1 0x40 MLOAD DUP1 SWAP2 SUB SWAP1 RETURN JUMPDEST PUSH2 0xB3 PUSH2 0x2A1 JUMP JUMPDEST STOP JUMPDEST CALLVALUE DUP1 ISZERO PUSH2 0xC0 JUMPI PUSH0 DUP1 REVERT JUMPDEST POP PUSH2 0xDB PUSH1 0x4 DUP1 CALLDATASIZE SUB DUP2 ADD SWAP1 PUSH2 0xD6 SWAP2 SWAP1 PUSH2 0x620 JUMP JUMPDEST PUSH2 0x3A8 JUMP JUMPDEST PUSH1 0x40 MLOAD PUSH2 0xE8 SWAP2 SWAP1 PUSH2 0x5A8 JUMP JUMPDEST PUSH1 0x40 MLOAD DUP1 SWAP2 SUB SWAP1 RETURN JUMPDEST PUSH0 DUP1 SLOAD SWAP1 PUSH2 0x100 EXP SWAP1 DIV PUSH20 0xFFFFFFFFFFFFFFFFFFFFFFFFFFFFFFFFFFFFFFFF AND PUSH20 0xFFFFFFFFFFFFFFFFFFFFFFFFFFFFFFFFFFFFFFFF AND CALLER PUSH20 0xFFFFFFFFFFFFFFFFFFFFFFFFFFFFFFFFFFFFFFFF AND EQ PUSH2 0x17E JUMPI PUSH1 0x40 MLOAD PUSH32 0x8C379A000000000000000000000000000000000000000000000000000000000 DUP2 MSTORE PUSH1 0x4 ADD PUSH2 0x175 SWAP1 PUSH2 0x6A5 JUMP JUMPDEST PUSH1 0x40 MLOAD DUP1 SWAP2 SUB SWAP1 REVERT JUMPDEST PUSH0 PUSH2 0x187 PUSH2 0x3E3 JUMP JUMPDEST SWAP1 POP PUSH0 PUSH1 0x1 DUP3 DUP2 SLOAD DUP2 LT PUSH2 0x19E JUMPI PUSH2 0x19D PUSH2 0x6C3 JUMP JUMPDEST JUMPDEST SWAP1 PUSH0 MSTORE PUSH1 0x20 PUSH0 KECCAK256 ADD PUSH0 SWAP1 SLOAD SWAP1 PUSH2 0x100 EXP SWAP1 DIV PUSH20 0xFFFFFFFFFFFFFFFFFFFFFFFFFFFFFFFFFFFFFFFF AND SWAP1 POP DUP1 PUSH20 0xFFFFFFFFFFFFFFFFFFFFFFFFFFFFFFFFFFFFFFFF AND PUSH2 0x8FC PUSH1 0x2 SLOAD SWAP1 DUP2 ISZERO MUL SWAP1 PUSH1 0x40 MLOAD PUSH0 PUSH1 0x40 MLOAD DUP1 DUP4 SUB DUP2 DUP6 DUP9 DUP9 CALL SWAP4 POP POP POP POP ISZERO DUP1 ISZERO PUSH2 0x20D JUMPI RETURNDATASIZE PUSH0 DUP1 RETURNDATACOPY RETURNDATASIZE PUSH0 REVERT JUMPDEST POP PUSH0 PUSH1 0x2 DUP2 SWAP1 SSTORE POP PUSH0 PUSH8 0xFFFFFFFFFFFFFFFF DUP2 GT ISZERO PUSH2 0x22F JUMPI PUSH2 0x22E PUSH2 0x6F0 JUMP JUMPDEST JUMPDEST PUSH1 0x40 MLOAD SWAP1 DUP1 DUP3 MSTORE DUP1 PUSH1 0x20 MUL PUSH1 0x20 ADD DUP3 ADD PUSH1 0x40 MSTORE DUP1 ISZERO PUSH2 0x25D JUMPI DUP2 PUSH1 0x20 ADD PUSH1 0x20 DUP3 MUL DUP1 CALLDATASIZE DUP4 CALLDATACOPY DUP1 DUP3 ADD SWAP2 POP POP SWAP1 POP JUMPDEST POP PUSH1 0x1 SWAP1 DUP1 MLOAD SWAP1 PUSH1 0x20 ADD SWAP1 PUSH2 0x273 SWAP3 SWAP2 SWAP1 PUSH2 0x4C7 JUMP JUMPDEST POP POP POP JUMP JUMPDEST PUSH0 DUP1 SLOAD SWAP1 PUSH2 0x100 EXP SWAP1 DIV PUSH20 0xFFFFFFFFFFFFFFFFFFFFFFFFFFFFFFFFFFFFFFFF AND DUP2 JUMP JUMPDEST PUSH1 0x2 SLOAD DUP2 JUMP JUMPDEST PUSH0 DUP1 SLOAD SWAP1 PUSH2 0x100 EXP SWAP1 DIV PUSH20 0xFFFFFFFFFFFFFFFFFFFFFFFFFFFFFFFFFFFFFFFF AND PUSH20 0xFFFFFFFFFFFFFFFFFFFFFFFFFFFFFFFFFFFFFFFF AND CALLER PUSH20 0xFFFFFFFFFFFFFFFFFFFFFFFFFFFFFFFFFFFFFFFF AND SUB PUSH2 0x32E JUMPI PUSH1 0x40 MLOAD PUSH32 0x8C379A000000000000000000000000000000000000000000000000000000000 DUP2 MSTORE PUSH1 0x4 ADD PUSH2 0x325 SWAP1 PUSH2 0x767 JUMP JUMPDEST PUSH1 0x40 MLOAD DUP1 SWAP2 SUB SWAP1 REVERT JUMPDEST PUSH1 0x1 CALLER SWAP1 DUP1 PUSH1 0x1 DUP2 SLOAD ADD DUP1 DUP3 SSTORE DUP1 SWAP2 POP POP PUSH1 0x1 SWAP1 SUB SWAP1 PUSH0 MSTORE PUSH1 0x20 PUSH0 KECCAK256 ADD PUSH0 SWAP1 SWAP2 SWAP1 SWAP2 SWAP1 SWAP2 PUSH2 0x100 EXP DUP2 SLOAD DUP2 PUSH20 0xFFFFFFFFFFFFFFFFFFFFFFFFFFFFFFFFFFFFFFFF MUL NOT AND SWAP1 DUP4 PUSH20 0xFFFFFFFFFFFFFFFFFFFFFFFFFFFFFFFFFFFFFFFF AND MUL OR SWAP1 SSTORE POP CALLVALUE PUSH1 0x2 PUSH0 DUP3 DUP3 SLOAD PUSH2 0x39F SWAP2 SWAP1 PUSH2 0x7B2 JUMP JUMPDEST SWAP3 POP POP DUP2 SWAP1 SSTORE POP JUMP JUMPDEST PUSH1 0x1 DUP2 DUP2 SLOAD DUP2 LT PUSH2 0x3B7 JUMPI PUSH0 DUP1 REVERT JUMPDEST SWAP1 PUSH0 MSTORE PUSH1 0x20 PUSH0 KECCAK256 ADD PUSH0 SWAP2 POP SLOAD SWAP1 PUSH2 0x100 EXP SWAP1 DIV PUSH20 0xFFFFFFFFFFFFFFFFFFFFFFFFFFFFFFFFFFFFFFFF AND DUP2 JUMP JUMPDEST PUSH0 DUP1 PUSH0 SWAP1 SLOAD SWAP1 PUSH2 0x100 EXP SWAP1 DIV PUSH20 0xFFFFFFFFFFFFFFFFFFFFFFFFFFFFFFFFFFFFFFFF AND PUSH20 0xFFFFFFFFFFFFFFFFFFFFFFFFFFFFFFFFFFFFFFFF AND CALLER PUSH20 0xFFFFFFFFFFFFFFFFFFFFFFFFFFFFFFFFFFFFFFFF AND EQ PUSH2 0x472 JUMPI PUSH1 0x40 MLOAD PUSH32 0x8C379A000000000000000000000000000000000000000000000000000000000 DUP2 MSTORE PUSH1 0x4 ADD PUSH2 0x469 SWAP1 PUSH2 0x6A5 JUMP JUMPDEST PUSH1 0x40 MLOAD DUP1 SWAP2 SUB SWAP1 REVERT JUMPDEST PUSH0 PUSH1 0x1 NUMBER PUSH2 0x480 SWAP2 SWAP1 PUSH2 0x7E5 JUMP JUMPDEST BLOCKHASH TIMESTAMP PUSH1 0x1 PUSH1 0x40 MLOAD PUSH1 0x20 ADD PUSH2 0x496 SWAP4 SWAP3 SWAP2 SWAP1 PUSH2 0x971 JUMP JUMPDEST PUSH1 0x40 MLOAD PUSH1 0x20 DUP2 DUP4 SUB SUB DUP2 MSTORE SWAP1 PUSH1 0x40 MSTORE DUP1 MLOAD SWAP1 PUSH1 0x20 ADD KECCAK256 PUSH0 SHR SWAP1 POP PUSH1 0x1 DUP1 SLOAD SWAP1 POP DUP2 PUSH2 0x4C1 SWAP2 SWAP1 PUSH2 0x9D6 JUMP JUMPDEST SWAP2 POP POP SWAP1 JUMP JUMPDEST DUP3 DUP1 SLOAD DUP3 DUP3 SSTORE SWAP1 PUSH0 MSTORE PUSH1 0x20 PUSH0 KECCAK256 SWAP1 DUP2 ADD SWAP3 DUP3 ISZERO PUSH2 0x53D JUMPI SWAP2 PUSH1 0x20 MUL DUP3 ADD JUMPDEST DUP3 DUP2 GT ISZERO PUSH2 0x53C JUMPI DUP3 MLOAD DUP3 PUSH0 PUSH2 0x100 EXP DUP2 SLOAD DUP2 PUSH20 0xFFFFFFFFFFFFFFFFFFFFFFFFFFFFFFFFFFFFFFFF MUL NOT AND SWAP1 DUP4 PUSH20 0xFFFFFFFFFFFFFFFFFFFFFFFFFFFFFFFFFFFFFFFF AND MUL OR SWAP1 SSTORE POP SWAP2 PUSH1 0x20 ADD SWAP2 SWAP1 PUSH1 0x1 ADD SWAP1 PUSH2 0x4E5 JUMP JUMPDEST JUMPDEST POP SWAP1 POP PUSH2 0x54A SWAP2 SWAP1 PUSH2 0x54E JUMP JUMPDEST POP SWAP1 JUMP JUMPDEST JUMPDEST DUP1 DUP3 GT ISZERO PUSH2 0x565 JUMPI PUSH0 DUP2 PUSH0 SWAP1 SSTORE POP PUSH1 0x1 ADD PUSH2 0x54F JUMP JUMPDEST POP SWAP1 JUMP JUMPDEST PUSH0 PUSH20 0xFFFFFFFFFFFFFFFFFFFFFFFFFFFFFFFFFFFFFFFF DUP3 AND SWAP1 POP SWAP2 SWAP1 POP JUMP JUMPDEST PUSH0 PUSH2 0x592 DUP3 PUSH2 0x569 JUMP JUMPDEST SWAP1 POP SWAP2 SWAP1 POP JUMP JUMPDEST PUSH2 0x5A2 DUP2 PUSH2 0x588 JUMP JUMPDEST DUP3 MSTORE POP POP JUMP JUMPDEST PUSH0 PUSH1 0x20 DUP3 ADD SWAP1 POP PUSH2 0x5BB PUSH0 DUP4 ADD DUP5 PUSH2 0x599 JUMP JUMPDEST SWAP3 SWAP2 POP POP JUMP JUMPDEST PUSH0 DUP2 SWAP1 POP SWAP2 SWAP1 POP JUMP JUMPDEST PUSH2 0x5D3 DUP2 PUSH2 0x5C1 JUMP JUMPDEST DUP3 MSTORE POP POP JUMP JUMPDEST PUSH0 PUSH1 0x20 DUP3 ADD SWAP1 POP PUSH2 0x5EC PUSH0 DUP4 ADD DUP5 PUSH2 0x5CA JUMP JUMPDEST SWAP3 SWAP2 POP POP JUMP JUMPDEST PUSH0 DUP1 REVERT JUMPDEST PUSH2 0x5FF DUP2 PUSH2 0x5C1 JUMP JUMPDEST DUP2 EQ PUSH2 0x609 JUMPI PUSH0 DUP1 REVERT JUMPDEST POP JUMP JUMPDEST PUSH0 DUP2 CALLDATALOAD SWAP1 POP PUSH2 0x61A DUP2 PUSH2 0x5F6 JUMP JUMPDEST SWAP3 SWAP2 POP POP JUMP JUMPDEST PUSH0 PUSH1 0x20 DUP3 DUP5 SUB SLT ISZERO PUSH2 0x635 JUMPI PUSH2 0x634 PUSH2 0x5F2 JUMP JUMPDEST JUMPDEST PUSH0 PUSH2 0x642 DUP5 DUP3 DUP6 ADD PUSH2 0x60C JUMP JUMPDEST SWAP2 POP POP SWAP3 SWAP2 POP POP JUMP JUMPDEST PUSH0 DUP3 DUP3 MSTORE PUSH1 0x20 DUP3 ADD SWAP1 POP SWAP3 SWAP2 POP POP JUMP JUMPDEST PUSH32 0x4F6E6C79206D616E616765722063616E20616363657373207468697300000000 PUSH0 DUP3 ADD MSTORE POP JUMP JUMPDEST PUSH0 PUSH2 0x68F PUSH1 0x1C DUP4 PUSH2 0x64B JUMP JUMPDEST SWAP2 POP PUSH2 0x69A DUP3 PUSH2 0x65B JUMP JUMPDEST PUSH1 0x20 DUP3 ADD SWAP1 POP SWAP2 SWAP1 POP JUMP JUMPDEST PUSH0 PUSH1 0x20 DUP3 ADD SWAP1 POP DUP2 DUP2 SUB PUSH0 DUP4 ADD MSTORE PUSH2 0x6BC DUP2 PUSH2 0x683 JUMP JUMPDEST SWAP1 POP SWAP2 SWAP1 POP JUMP JUMPDEST PUSH32 0x4E487B7100000000000000000000000000000000000000000000000000000000 PUSH0 MSTORE PUSH1 0x32 PUSH1 0x4 MSTORE PUSH1 0x24 PUSH0 REVERT JUMPDEST PUSH32 0x4E487B7100000000000000000000000000000000000000000000000000000000 PUSH0 MSTORE PUSH1 0x41 PUSH1 0x4 MSTORE PUSH1 0x24 PUSH0 REVERT JUMPDEST PUSH32 0x4D616E616765722063616E277420706172746963697061746521210000000000 PUSH0 DUP3 ADD MSTORE POP JUMP JUMPDEST PUSH0 PUSH2 0x751 PUSH1 0x1B DUP4 PUSH2 0x64B JUMP JUMPDEST SWAP2 POP PUSH2 0x75C DUP3 PUSH2 0x71D JUMP JUMPDEST PUSH1 0x20 DUP3 ADD SWAP1 POP SWAP2 SWAP1 POP JUMP JUMPDEST PUSH0 PUSH1 0x20 DUP3 ADD SWAP1 POP DUP2 DUP2 SUB PUSH0 DUP4 ADD MSTORE PUSH2 0x77E DUP2 PUSH2 0x745 JUMP JUMPDEST SWAP1 POP SWAP2 SWAP1 POP JUMP JUMPDEST PUSH32 0x4E487B7100000000000000000000000000000000000000000000000000000000 PUSH0 MSTORE PUSH1 0x11 PUSH1 0x4 MSTORE PUSH1 0x24 PUSH0 REVERT JUMPDEST PUSH0 PUSH2 0x7BC DUP3 PUSH2 0x5C1 JUMP JUMPDEST SWAP2 POP PUSH2 0x7C7 DUP4 PUSH2 0x5C1 JUMP JUMPDEST SWAP3 POP DUP3 DUP3 ADD SWAP1 POP DUP1 DUP3 GT ISZERO PUSH2 0x7DF JUMPI PUSH2 0x7DE PUSH2 0x785 JUMP JUMPDEST JUMPDEST SWAP3 SWAP2 POP POP JUMP JUMPDEST PUSH0 PUSH2 0x7EF DUP3 PUSH2 0x5C1 JUMP JUMPDEST SWAP2 POP PUSH2 0x7FA DUP4 PUSH2 0x5C1 JUMP JUMPDEST SWAP3 POP DUP3 DUP3 SUB SWAP1 POP DUP2 DUP2 GT ISZERO PUSH2 0x812 JUMPI PUSH2 0x811 PUSH2 0x785 JUMP JUMPDEST JUMPDEST SWAP3 SWAP2 POP POP JUMP JUMPDEST PUSH0 DUP2 SWAP1 POP SWAP2 SWAP1 POP JUMP JUMPDEST PUSH0 DUP2 SWAP1 POP SWAP2 SWAP1 POP JUMP JUMPDEST PUSH2 0x83B PUSH2 0x836 DUP3 PUSH2 0x818 JUMP JUMPDEST PUSH2 0x821 JUMP JUMPDEST DUP3 MSTORE POP POP JUMP JUMPDEST PUSH0 DUP2 SWAP1 POP SWAP2 SWAP1 POP JUMP JUMPDEST PUSH2 0x85B PUSH2 0x856 DUP3 PUSH2 0x5C1 JUMP JUMPDEST PUSH2 0x841 JUMP JUMPDEST DUP3 MSTORE POP POP JUMP JUMPDEST PUSH0 DUP2 SLOAD SWAP1 POP SWAP2 SWAP1 POP JUMP JUMPDEST PUSH0 DUP2 SWAP1 POP SWAP3 SWAP2 POP POP JUMP JUMPDEST PUSH0 DUP2 SWAP1 POP DUP2 PUSH0 MSTORE PUSH1 0x20 PUSH0 KECCAK256 SWAP1 POP SWAP2 SWAP1 POP JUMP JUMPDEST PUSH2 0x890 DUP2 PUSH2 0x588 JUMP JUMPDEST DUP3 MSTORE POP POP JUMP JUMPDEST PUSH0 PUSH2 0x8A1 DUP4 DUP4 PUSH2 0x887 JUMP JUMPDEST PUSH1 0x20 DUP4 ADD SWAP1 POP SWAP3 SWAP2 POP POP JUMP JUMPDEST PUSH0 DUP2 PUSH0 SHR SWAP1 POP SWAP2 SWAP1 POP JUMP JUMPDEST PUSH0 PUSH20 0xFFFFFFFFFFFFFFFFFFFFFFFFFFFFFFFFFFFFFFFF DUP3 AND SWAP1 POP SWAP2 SWAP1 POP JUMP JUMPDEST PUSH0 PUSH2 0x8E9 PUSH2 0x8E4 DUP4 PUSH2 0x8AD JUMP JUMPDEST PUSH2 0x8B8 JUMP JUMPDEST SWAP1 POP SWAP2 SWAP1 POP JUMP JUMPDEST PUSH0 PUSH2 0x8FB DUP3 SLOAD PUSH2 0x8D7 JUMP JUMPDEST SWAP1 POP SWAP2 SWAP1 POP JUMP JUMPDEST PUSH0 PUSH1 0x1 DUP3 ADD SWAP1 POP SWAP2 SWAP1 POP JUMP JUMPDEST PUSH0 PUSH2 0x918 DUP3 PUSH2 0x861 JUMP JUMPDEST PUSH2 0x922 DUP2 DUP6 PUSH2 0x86B JUMP JUMPDEST SWAP4 POP PUSH2 0x92D DUP4 PUSH2 0x875 JUMP JUMPDEST DUP1 PUSH0 JUMPDEST DUP4 DUP2 LT ISZERO PUSH2 0x964 JUMPI PUSH2 0x941 DUP3 PUSH2 0x8F0 JUMP JUMPDEST PUSH2 0x94B DUP9 DUP3 PUSH2 0x896 JUMP JUMPDEST SWAP8 POP PUSH2 0x956 DUP4 PUSH2 0x902 JUMP JUMPDEST SWAP3 POP POP PUSH1 0x1 DUP2 ADD SWAP1 POP PUSH2 0x930 JUMP JUMPDEST POP DUP6 SWAP4 POP POP POP POP SWAP3 SWAP2 POP POP JUMP JUMPDEST PUSH0 PUSH2 0x97C DUP3 DUP7 PUSH2 0x82A JUMP JUMPDEST PUSH1 0x20 DUP3 ADD SWAP2 POP PUSH2 0x98C DUP3 DUP6 PUSH2 0x84A JUMP JUMPDEST PUSH1 0x20 DUP3 ADD SWAP2 POP PUSH2 0x99C DUP3 DUP5 PUSH2 0x90E JUMP JUMPDEST SWAP2 POP DUP2 SWAP1 POP SWAP5 SWAP4 POP POP POP POP JUMP JUMPDEST PUSH32 0x4E487B7100000000000000000000000000000000000000000000000000000000 PUSH0 MSTORE PUSH1 0x12 PUSH1 0x4 MSTORE PUSH1 0x24 PUSH0 REVERT JUMPDEST PUSH0 PUSH2 0x9E0 DUP3 PUSH2 0x5C1 JUMP JUMPDEST SWAP2 POP PUSH2 0x9EB DUP4 PUSH2 0x5C1 JUMP JUMPDEST SWAP3 POP DUP3 PUSH2 0x9FB JUMPI PUSH2 0x9FA PUSH2 0x9A9 JUMP JUMPDEST JUMPDEST DUP3 DUP3 MOD SWAP1 POP SWAP3 SWAP2 POP POP JUMP INVALID LOG2 PUSH5 0x6970667358 0x22 SLT KECCAK256 PUSH21 0x1FE2D535DF2FD4A2E560E3030CE90CEBB9BC678C01 DUP2 PUSH0 0xE0 0xE 0xE2 0xE1 LOG4 0xA7 0x2E 0xD3 PUSH5 0x736F6C6343 STOP ADDMOD AND STOP CALLER "
				},
				"gasEstimates": {
					"creation": {
						"codeDepositCost": "524000",
						"executionCost": "24819",
						"totalCost": "548819"
					},
					"external": {
						"balance()": "2447",
						"enterToGame()": "infinite",
						"manager()": "2505",
						"players(uint256)": "5010",
						"sendFundToWinner()": "infinite"
					},
					"internal": {
						"randomlyChooseWinner()": "infinite"
					}
				},
				"methodIdentifiers": {
					"balance()": "b69ef8a8",
					"enterToGame()": "e802e757",
					"manager()": "481c6a75",
					"players(uint256)": "f71d96cb",
					"sendFundToWinner()": "07a0ee2d"
				}
			},
			"storageLayout": {
				"storage": [
					{
						"astId": 3,
						"contract": "first.sol:Lottery",
						"label": "manager",
						"offset": 0,
						"slot": "0",
						"type": "t_address"
					},
					{
						"astId": 6,
						"contract": "first.sol:Lottery",
						"label": "players",
						"offset": 0,
						"slot": "1",
						"type": "t_array(t_address)dyn_storage"
					},
					{
						"astId": 8,
						"contract": "first.sol:Lottery",
						"label": "balance",
						"offset": 0,
						"slot": "2",
						"type": "t_uint256"
					}
				],
				"types": {
					"t_address": {
						"encoding": "inplace",
						"label": "address",
						"numberOfBytes": "20"
					},
					"t_array(t_address)dyn_storage": {
						"base": "t_address",
						"encoding": "dynamic_array",
						"label": "address[]",
						"numberOfBytes": "32"
					},
					"t_uint256": {
						"encoding": "inplace",
						"label": "uint256",
						"numberOfBytes": "32"
					}
				}
			},
			"userdoc": {
				"kind": "user",
				"methods": {},
				"version": 1
			}
		}
	}
}